:020000040800F2
:10000000607600207D020008594D0008D5410008A7
:10001000554D000891080008AD5C00080000000084
:10002000000000000000000000000000C101000806
:100030008F0C00080000000015020008F1520008B3
:10004000970200089702000897020008970200082C
:10005000970200089702000897020008970200081C
:10006000970200089702000897020008970200080C
:10007000F50A000897020008050B0008970200081F
:10008000150B0008250B000897020008A5080008BA
:1000900095080008970200089702000897020008D8
:1000A00097020008970200089702000897020008CC
:1000B00097020008970200089702000897020008BC
:1000C00097020008970200089702000897020008AC
:1000D000970200085D5C0008715C0008855C000800
:1000E000970200089702000897020008970200088C
:1000F000970200089702000897020008970200087C
:1001000097020008814E0008970200089702000835
:100110009702000897020008695400089702000837
:1001200097020008350B0008450B0008550B000826
:10013000970200089702000897020008C508000807
:10014000B508000897020008970200089702000807
:1001500097020008650B0008750B0008995C000801
:10016000970200089702000897020008970200080B
:10017000970200089702000897020008000000009C
:1001800097020008970200089702000897020008EB
:1001900097020008970200089702000897020008DB
:1001A000000000000000000097020008DFF80CD0FB
:1001B00000F024FB00480047B57800086076002076
:1001C0002B4B19680868B0E8F04F80F30988BFF33B
:1001D0006F8F4FF0000080F311887047000000001F
:1001E00006480068006880F3088862B661B6BFF30D
:1001F0004F8FBFF36F8F00DF00BF00BF08ED00E03F
:10020000DFF80C00016841F470010160704700BF25
:1002100088ED00E0EFF30980BFF36F8F144B1A688D
:100220001EF0100F08BF20ED108A20E9F04F10607B
:1002300008B44FF0500080F31188BFF34F8FBFF325
:100240006F8F08F01FFE4FF0000080F3118808BC8C
:1002500019680868B0E8F04F1EF0100F08BFB0EC46
:10026000108A80F30988BFF36F8F704700BF00BF0B
:1002700020000020EFF3058070470000064880470B
:1002800006480047FEE7FEE7FEE7FEE7FEE7FEE77B
:10029000FEE7FEE7FEE7FEE705540008AD010008B3
:1002A00040EA01039B0703D009E008C9121F08C0F8
:1002B000042AFAD203E011F8013B00F8013B521E78
:1002C000F9D27047D2B201E000F8012B491EFBD2EF
:1002D00070470022F6E710B513460A460446194651
:1002E000FFF7F0FF204610BD2DE9FE4F804681EA62
:1002F0000300C00F0C46009021F0004123F00045A0
:10030000B8EB0200A94105D24046214690461C4662
:100310000B46024623F00040104347D0270DC7F399
:100320000A00C3F30A510290401A019040286BDA88
:10033000C3F3130040F4801B0098924620B10023C1
:10034000D2EB030A63EB0B0B01985946C0F1400254
:10035000504600F055F906460D4650465946019A5A
:1003600000F06DF910EB08006141002487EA11529A
:1003700084EAE7731A4340D0009A62B3019A012AD3
:100380004FEA075215DC001B61EB02014FF00042FF
:1003900002EA0752CDE90042001C41F580113246C5
:1003A0002B4600F06DF903B0BDE8F08F40462146C2
:1003B000F9E7001B61EB0201001C41F580130018F6
:1003C0005B412018A2F5001747EB030140EAD57006
:1003D000B6196D4111E06D084FEA360645EAC07561
:1003E0004FEA0752001B61EB0201001C41F580112E
:1003F00049084FEA30000019514132462B4603B0FC
:10040000BDE8F04F00F02DB9009801224000002314
:10041000D0EB020263EBE073009821464FEAE074F0
:10042000B8EB000061EB0401E9E783F000435BE710
:1004300081F0004158E72DE9FE4F81EA030404F002
:10044000004421F0004100944FF0000B23F00043E2
:1004500050EA01045ED052EA03045BD0C3F30A54AD
:10046000C1F30A552C44A4F2F3340194A0FB0254C6
:10047000C1F3130141F48011C3F3130343F4801358
:1004800001FB024400FB034E840A970A44EA8154AC
:1004900047EA8357A4FB076802958D0A05FB078589
:1004A0004FEA932C04FB0C542705029D4FEA065893
:1004B00047EA1637B5EB08056EEB070C870E920E70
:1004C00047EA811742EA8312A7FB0201B6EB0B0150
:1004D00064EB00042B0D43EA0C335E1844EB1C5014
:1004E000DA465146E7FB0201C5F313044FEA0B332A
:1004F00043EA14534FEA0432019C43EA0603A4F191
:100500000C040294009CCDE900B400F0B9F803B0EB
:10051000BDE8F08F00200146F9E70EB5C10F80EA73
:10052000E0700844CA07002140F233438DE80E0012
:100530000A460B4600F0A4F803B000BD70B5C1F345
:100540000A5201F000450024C1F3130140F2FF33C9
:1005500041F480119A4201DA002070BD40F2334329
:100560009A42A2F2334203DC524200F058F800E013
:1005700090402C43F1D0404270BD00F0004230F07A
:1005800000400AD0C10D01F56071C0F3160042EAC7
:100590000151C208400711437047002001467047CF
:1005A00030B5041E71F1000404DB4FF000444042FA
:1005B00064EB0101141E73F1000405DB1C464FF0CF
:1005C0000043524263EB04038B4208BF824230BDBA
:1005D00030B5041E71F1000404DB4FF000444042CA
:1005E00064EB0101141E73F1000405DB1C464FF09F
:1005F0000043524263EB0403994208BF904230BD6E
:10060000202A04DB203A00FA02F1002070479140D2
:10061000C2F1200320FA03F3194390407047202AC7
:1006200004DB203A21FA02F00021704721FA02F39C
:10063000D040C2F120029140084319467047202A59
:1006400006DBCB17203A41FA02F043EAE07306E0FA
:1006500041FA02F3D040C2F120029140084319460A
:10066000704710B5141E73F1000408DA401C41F104
:10067000000192185B411A4301D120F0010010BD26
:100680002DE9F04D92469B4611B1B1FA81F202E09C
:10069000B0FA80F220329046FFF7B2FF04460F46D0
:1006A00040EA0A0041EA0B0153465A46084313D078
:1006B000114653EA010019D0C8F140025046FFF735
:1006C000AEFF05460E46504659464246FFF798FF94
:1006D000084305D0012004E020463946BDE8F08DEE
:1006E0000020054346EAE0762C4337430A98630529
:1006F000E40AA0EB08000022FD0A44EA47540A304D
:1007000002D500200146E9E7010510196941DDE93C
:10071000084500196941BDE8F04DA2E72DE9F04D0B
:1007200081EA030404F0004B21F0004514464FF029
:10073000000A23F0004150EA050220D054EA0102E9
:100740001DD0C5F30A570246C5F31303C1F31300C6
:10075000C1F30A5640F4801543F48013A7EB060852
:10076000101BD64608F2FD3873EB050002D308F1E2
:10077000010801E092185B41B8F1000F03DA002094
:100780000146BDE8F08D00204FF4801106468446F6
:100790000EE0171B73EB050705D3121B63EB050374
:1007A00006434CEA010C49084FEA300092185B41BD
:1007B00050EA0107EDD152EA030012D082EA0400A8
:1007C00083EA0501084305D0101BAB4106D2012284
:1007D000002306E000224FF0004302E06FF0010228
:1007E00053101AEB06004CEB085110EB0A0041EBDA
:1007F0000B01BDE8F04DFFF734BF0000064C074D7C
:1008000006E0E06840F0010394E8070098471034E0
:10081000AC42F6D3FFF7CEFC68990008889900082F
:100820000EB540F2334102910021CDE900110A4694
:100830000B46FFF725FF03B000BD70B58C1810F80C
:10084000015B15F0070301D110F8013B2A1106D115
:1008500010F8012B03E010F8016B01F8016B5B1E2F
:10086000F9D12B0705D40023521E0DD401F8013B0A
:10087000FAE710F8013BCB1A921C03E013F8015B76
:1008800001F8015B521EF9D5A142D8D3002070BDFA
:1008900000BFFEE710B5024800F0B0FA10BD00003E
:1008A0001C45002010B5024800F0A8FA10BD000059
:1008B0001C45002010B5024800F0A0FA10BD000051
:1008C0005C45002010B5024800F098FA10BD000009
:1008D0005C45002070B504460D46206800F5D870D0
:1008E00000EB0510006800F00400616B8860606B2D
:1008F000806860B9206800F5D87000EB05100068CA
:1009000040F2FF7101EA5050616B08600BE0206813
:1009100000F5D87000EB051000686FF0604101EA47
:10092000D000616B4860206800F5D87000EB0510BE
:10093000006800F00200616BC860206800F5D870A4
:1009400000EB0510406800F00F00616B0861606B00
:100950000562206800F5D87000EB05104068C0F310
:100960000720616BC861206800F5D87000EB0510A6
:100970008068616B0875206800F5D87000EB051081
:100980008068010A606B4175206800F5D87000EB43
:1009900005108068010C606B8175206800F5D870C7
:1009A00000EB05108068000E616BC875206800F5CB
:1009B000D87000EB0510C068C1B2606B017620688A
:1009C00000F5D87000EB0510C068010A606B417635
:1009D000206800F5D87000EB0510C068010C606B52
:1009E0008176206800F5D87000EB0510C068000E15
:1009F000616BC8764DB920202168C86020684069C5
:100A000020F002002168486108E020202168086188
:100A10002068406920F010002168486194F838008F
:100A200022281DD12068406920F480702168486127
:100A30002068406920F4007021684861206840699E
:100A400020F48060216848612068406920F40060DB
:100A5000216848612068406920F4004021684861AD
:100A600094F83800322803D1122084F8380002E0CC
:100A7000012084F83800204600F078FC002070BD8A
:100A800010B504462068406920F0010021684861E3
:100A900094F8380012281DD12068406920F4807035
:100AA000216848612068406920F40070216848612D
:100AB0002068406920F480602168486120684069AE
:100AC00020F40060216848612068406920F40040FB
:100AD0002168486194F83800322803D1222084F834
:100AE000380002E0012084F83800204600F054FE6F
:100AF000002010BD10B5024800F064FE10BD0000DB
:100B00005842002010B5024800F05CFE10BD000005
:100B1000B842002010B5024800F054FE10BD00009D
:100B20009841002010B5024800F04CFE10BD0000B6
:100B3000F841002010B5024800F044FE10BD00004E
:100B40001843002010B5024800F03CFE10BD000024
:100B50003841002010B5024800F034FE10BD0000FE
:100B60005C44002010B5024800F02CFE10BD0000CF
:100B7000BC44002010B5024800F024FE10BD000067
:100B8000784300200146087810381823B0FBF3F2B0
:100B90000848805CC865032A05D908686FF3090016
:100BA000001D886503E008686FF309008865886D9B
:100BB0007047000030980008014600208A6A8B695F
:100BC000CBB932B1012A0DD0022A03D0032A10D1A9
:100BD0000EE000BFCB6A03F08073B3F1807F00D1D9
:100BE000012007E0CB6AB3F1C07F00D1012001E012
:100BF00000E000BF34E08B69B3F5005F1AD132B179
:100C0000012A07D0022A03D0032A11D10AE000BF2B
:100C100001200EE0CB6A03F08073B3F1807F00D136
:100C2000012006E0CB6AB3F1C07F00D1012000E0D3
:100C300000BF15E032B1012A05D0022A04D0032AF0
:100C40000CD103E000BF00BF012008E0CB6A03F035
:100C50008073B3F1807F00D1012000E000BF00BFAE
:100C6000704730B50468246824F4802405682C603B
:100C7000046863608468402C04D10468A26004683E
:100C8000E16003E00468A1600468E26030BD704781
:100C900010B508F0C3FB0949096888420CD108F077
:100CA000D3FB07490968401A0649086006480068EE
:100CB000096808440449086010BD0000A000002035
:100CC000A8000020AC000020B000002030B5034692
:100CD00000220C7D012000FA04F24648006840F032
:100CE0000100444C20602046006820F47C502060C5
:100CF000204600684C6A40EA04203E4C20603D4893
:100D00001C30006890433B4C1C342060C869D8B943
:100D100038480C3000689043364C0C34206088888A
:100D200080B28C8940EA0444324840304D6940F832
:100D30003540088880B20C8940EA04442D48403090
:100D40004D6900EBC5004460C86901281BD12948E2
:100D50000C3000681043274C0C342060888880B227
:100D60000C8840EA0444234840304D6940F835403F
:100D7000888980B20C8940EA04441E4840304D699D
:100D800000EBC5004460886938B91A48001D006846
:100D90009043184C241D206006E01648001D006892
:100DA0001043144C241D2060086930B911481430D8
:100DB000006890430F4C143420600869012806D164
:100DC0000C481430006810430A4C14342060086A40
:100DD000012806D107481C3000681043054C1C341C
:100DE00020600448006820F00100024C20600020D0
:100DF00030BD000000660040704700002DE9F04162
:100E000004460025002600272068406900F0010004
:100E100018B32068806869490840884201D10120E0
:100E200000E0002005462068806865490840884247
:100E300001D1012000E00020064620688068614959
:100E40000840884201D1012000E0002007460DB98A
:100E500006B917B12046FFF713FE2068C06800F0FE
:100E6000030520684069C0F3400625B11EB100218A
:100E70002046FFF72FFD2068006900F00305206879
:100E80004069C0F3001625B11EB101212046FFF7CD
:100E900021FD2068806900F0010520684069C0F3E9
:100EA000002620684069C0F3C0372DB126B11FB1BC
:100EB000E06B40F00100E06320688069C0F340050A
:100EC00020684069C0F3402620684069C0F3C037FD
:100ED0002DB126B11FB1E06B40F00200E063206845
:100EE0008069C0F3800520684069C0F380262068CF
:100EF0004069C0F3C0372DB126B11FB1E06B40F09F
:100F00000400E0632068806900F0700008B90120E7
:100F100000E00020054620684069C0F3C026206834
:100F20004069C0F3C03795BB8EB387B32068806932
:100F300000F07005402D1BD006DC102D09D0202DAF
:100F40000CD0302D24D10EE0502D16D0602D1FD1A5
:100F500018E0E06B40F00800E0631AE0E06B40F05E
:100F60001000E06315E0E06B40F02000E06310E06B
:100F7000E06B40F04000E0630BE0E06B40F080008D
:100F8000E06306E0E06B40F48070E06301E007E0BE
:100F900000BF00BF2068806920F070002168886170
:100FA000E06B40B1042021684860012084F83800DB
:100FB0002046FFF721FFBDE8F08100000300000498
:100FC000000300080000031070B504460326002546
:100FD0000CB9012070BD94F8380028B9002084F8BD
:100FE0003900204600F0D0F8022084F8380020684C
:100FF000006820F00200216808602068006840F066
:1010000001002168086000F0CDFE05460EE000F00A
:10101000C9FE401B0A2809D9032084F8380000BF04
:10102000002084F8390000BF0320D3E7206840681F
:1010300000F001000028EAD02068406800F00100BC
:1010400008B9002692E0A069012806D1206800684E
:1010500040F080002168086005E02068006820F00A
:10106000800021680860E069012806D120680068D6
:1010700040F040002168086005E02068006820F02A
:10108000400021680860206A012806D120680068B5
:1010900040F020002168086005E02068006820F02A
:1010A000200021680860606A012806D12068006875
:1010B00040F010002168086005E02068006820F01A
:1010C000100021680860A06A012806D12068006825
:1010D00040F008002168086005E02068006820F002
:1010E000080021680860E06A012806D120680068CD
:1010F00040F004002168086005E02068006820F0E6
:10110000040021680860D4E902010843216908430A
:10111000616908436168491E08432168C861206805
:10112000006820F001002168086000F03BFE0546E1
:101130000EE000F037FE401B0A2809D9032084F88E
:10114000380000BF002084F8390000BF032041E7C9
:101150002068406800F001000028EAD1206840685B
:1011600000F0010008B1002600E00126012E06D1A2
:101170000020E063012084F8380000202AE70420E2
:1011800084F83800012025E710B586B004464549AB
:101190002068884237D144480068401C42490860B2
:1011A0000846006801280FD100BF002000903F488A
:1011B000006840F000703D4908600846006800F093
:1011C0000070009000BF00BF032001900220029039
:1011D00000200390032004900920059001A93448C1
:1011E00000F0CCFC00220521132000F085FE132026
:1011F00000F075FE00220521142000F07DFE142071
:1012000000F06DFE4BE02B492068884247D100BFBB
:10121000002000902548006840F080602349086065
:101220000846006800F08060009000BF00BF1E48C4
:101230000068401C1C4908600846006801280FD15E
:1012400000BF002000901948006840F00070174966
:1012500008600846006800F00070009000BF00BF02
:101260004FF4405001900220029000200390032090
:1012700004900920059001A90F4800F07FFC00228E
:1012800006213F2000F038FE3F2000F028FE00221B
:101290000621402000F030FE402000F020FE06B085
:1012A00010BD00000064004098000020403802405B
:1012B000000C0240006800400004024010B50246E5
:1012C000002392F83830012B01D0122B49D100BFF6
:1012D00092F83900012801D1022010BD012082F8C6
:1012E000390000BF92F83800122803D1322082F86A
:1012F000380002E0222082F838000020D063106815
:10130000406940F48070146860611068406940F47E
:101310000070146860611068406940F4806014686F
:1013200060611068406940F4006014686061106892
:10133000406940F400401468606100BF002082F8FA
:10134000390000BF31B91068406940F002001468EC
:10135000606108E01068406940F010001468606146
:1013600001E00220B9E70020B7E7000010B504460D
:10137000606B006840F20522811A904254D009DC6B
:10138000A0F2012090B1012811D0022810D003282A
:1013900073D10EE001294FD0022955D0B1F5FE7F5F
:1013A0006DD0A1F2FD110029F2D19EE000BF00BF77
:1013B00000BF606B0078401E5649087008460078F0
:1013C000C0EB0010544901EB80008169514800785E
:1013D000C0EB0010504A02EB80008069401C4D4A6F
:1013E0001278C2EB02124C4B03EB8202906132295D
:1013F0000AD848490978C1EB01111A4602EB81006D
:10140000214605F009FE09E042490978C1EB0111C6
:10141000414A02EB8100214605F0FAFC3D4909787A
:10142000C81C05F047FD62E021463C4805F0F0FC91
:101430000A2005F03FFD5AE02146394805F0E8FC56
:101440000B2005F037FD52E03648844214D136486F
:101450008069401C34498861084680690A2804D89C
:101460002146314805F0D8FD03E021462E4805F01D
:10147000CFFC0C2005F01EFD39E037E0FFE7606B84
:10148000007D0106606B407D41EA0041606B807D1C
:1014900041EA0020616BC97D084300EE100AB8EEF6
:1014A000C00ADFED220A20EE200A214880ED050A5D
:1014B000606B007E0106606B407E41EA0041606B1C
:1014C000807E41EA0020616BC97E084300EE100A6D
:1014D000B8EEC00ADFED150A20EE200A144880EDB0
:1014E000060A022005F0E6FC01E000E000BF00BFB4
:1014F0000C480068406940F002000A4909684861E8
:101500000C480068406940F002000A4909684861D7
:1015100010BD00009C000020044700208C460020E5
:10152000504600201C450020C84600206F12833A18
:10153000745900205C4500202DE9F04104460E4618
:10154000052500272068806800F08060B0F1806F7A
:101550000DD02068806800F00060B0F1006F06D008
:101560002068806800F08050B0F1805F7ED100BFBD
:1015700094F83900012802D10220BDE8F081012051
:1015800084F8390000BF94F83800222803D13220B3
:1015900084F8380002E0122084F83800206880685F
:1015A00000F08060B0F1806F01D1002509E0206873
:1015B000806800F00060B0F1006F01D1012500E00B
:1015C0000225206800F5C07000EB0510006800F0EF
:1015D0000101206800F5C07000EB05100160206B70
:1015E000806898B9206800F5C07000EB05100068AD
:1015F000216BC968226B128841EA42510843216875
:1016000001F5C07101EB0511086015E0206800F5D7
:10161000C07000EB05100068216B8968226B52686E
:1016200041EAC201226BD26811430843216801F5E7
:10163000C07101EB05110860206B007C00F00F0009
:10164000216B0861206800F5C07000EB0510406850
:1016500020F00F01206800F5C07000EB051041601C
:10166000206800F5C07000EB051000E088E04068DD
:10167000216B09690843216801F5C07101EB05116F
:101680004860206BC07D0106206B807D41EA0041EF
:10169000206B407D41EA0020216B097D08432168D1
:1016A00001F5C07101EB05118860206BC07E010659
:1016B000206B807E41EA0041206B407E41EA0020A1
:1016C000216B097E0843216801F5C07101EB05110A
:1016D000C860206800F5C07000EB0510006840F09D
:1016E0000101206800F5C07000EB0510016000F0FA
:1016F00059FB074611E0701C78B126B100F052FB8F
:10170000C01BB04209D9032084F8380000BF002074
:1017100084F8390000BF03202FE74DB920688068A6
:101720001A490840884201D1012016E0002014E047
:10173000012D09D12068806815490840884201D1EF
:1017400001200AE0002008E0206880681149084074
:10175000884201D1012000E000200028CBD094F87D
:101760003800322803D1222084F8380002E001201A
:1017700084F8380000BF002084F8390000BFFCE680
:10178000042084F838000120F7E60000030000047C
:1017900000030008000003107047014691F835006F
:1017A000022803D08020486501207047052081F879
:1017B00035000868006820F001000A681060002009
:1017C000F3E70000F8B50446002000908D4800685B
:1017D0004FF41651B0FBF1F7A56D2E6894F85C102C
:1017E00008208840304098B12068006800F004006C
:1017F00070B12068006820F004002168086094F847
:101800005C1008208840A860606D40F001006065B1
:1018100094F85C107C488840304068B1206840698A
:1018200000F0800040B194F85C1077488840A860D0
:10183000606D40F00200606594F85C107248C01C56
:101840008840304070B12068006800F0020048B164
:1018500094F85C106C48C01C8840A860606D40F033
:101860000400606594F85C1010208840304078B324
:101870002068006800F0080050B394F85C10102055
:101880008840A8602068006800F4802080B120684B
:10189000006800F4002028B9206CC8B12046216CF3
:1018A000884715E0A06C98B12046A16C88470FE0EE
:1018B0002068006800F4807028B92068006820F073
:1018C000080021680860206C10B12046216C884710
:1018D00094F85C10202088403040002865D02068B3
:1018E000006800F0100000285FD094F85C10202001
:1018F0008840A86094F83500052828D12068006841
:1019000020F01600216808602068406920F08000FF
:1019100021684861206C08B9A06C28B12068006873
:1019200020F008002168086094F85C103F2088408F
:10193000A86000BF002084F8340000BF012084F8B4
:101940003500206D10B12046216D8847F8BD206814
:10195000006800F4802080B12068006800F4002056
:1019600028B9606C10B12046616C88471DE0E06BBF
:10197000D8B12046E16B884717E02068006800F482
:10198000807068B92068006820F010002168086045
:1019900000BF002084F8340000BF012084F8350027
:1019A000E06B10B12046E16B8847606D38B3606D25
:1019B00000F00100F0B1052084F8350020680068CF
:1019C00020F001002168086000BF0098401C0090D2
:1019D000B84200D905E02068006800F00100002846
:1019E000F3D100BF00BF002084F8340000BF012005
:1019F00084F83500E06C10B12046E16C884700BFE8
:101A0000A4E7000000000020010080002DE9F04163
:101A10000446002500F0C6F9074614B90120BDE8C8
:101A2000F081606A00B100BF00BF002084F834007C
:101A300000BF022084F835002068006820F0010013
:101A4000216808600AE000F0ADF9C01B052805D93F
:101A500020206065032084F83500E0E720680068F6
:101A600000F001000028EED12068056821480540FB
:101A7000D4E901010843E168084321690843616929
:101A80000843A1690843E1690843216A0843054303
:101A9000606A042803D1D4E90B0108430543206898
:101AA00005602068456925F00705606A0543606A9E
:101AB00004280DD1A06A0543E06A48B12046FFF72B
:101AC0007BF828B140206065012084F83500A6E746
:101AD000206845612046FFF755F8064694F85C10EB
:101AE0003F208840B06000206065012084F8350008
:101AF000002094E73F8010F02DE9F04104460D46A8
:101B000016461F464FF0000800BF94F83400012825
:101B100002D10220BDE8F081012084F8340000BF2A
:101B200094F83500012811D1022084F835000020F6
:101B300060653B46324629462046FFF792F820680A
:101B4000006840F001002168086006E000BF002046
:101B500084F8340000BF4FF002084046DAE731B5A0
:101B600000F020F90546009C601C00B1641C00BF19
:101B700000F018F9401BA042FAD338BDF8B5024670
:101B80000B460025002400200021E6E0012606FA8D
:101B900001F51E6806EA0504AC4273D15E68022EA8
:101BA00002D05E68122E13D1CF0802F1200656F83B
:101BB00027004E07F70E0F26BE40B0434F07FF0E1B
:101BC0001E69BE403043CF0802F1200646F82700C8
:101BD00010684F000326BE40B0431E7906F003068E
:101BE0004F00BE40304310605E68012E08D05E6832
:101BF000022E05D05E68112E02D05E68122E13D11F
:101C000090684F000326BE40B0434F00DE68BE40E0
:101C100030439060506801268E40B0431E79C6F371
:101C200000168E4030435060D0684F000326BE40FF
:101C3000B0434F009E68BE403043D0605E6806F0FF
:101C40008056B6F1805FA8D100BF00260096454EB1
:101C5000366846F48046434F3E603E46366806F49A
:101C60008046009600BF00BF3F4E8F0856F8270001
:101C70008E07370F0F26BE40B0433C4EB24202D112
:101C800000262EE068E03A4EB24201D1012628E05B
:101C9000384EB24201D1022623E0374EB24201D182
:101CA00003261EE0354EB24201D1042619E0344E1F
:101CB000B24201D1052614E0324EB24201D10626CD
:101CC0000FE0314EB24201D107260AE02F4EB24258
:101CD00001D1082605E02E4EB24201D1092600E0CE
:101CE0000A268F073F0FBE4030431F4E8F0846F82D
:101CF0002700284E3068A0435E6806F48036B6F5AB
:101D0000803F00D12043234E3060361D3068A04311
:101D10005E6806F40036B6F5003F00D120431D4E44
:101D2000361D3060361D3068A0435E6806F48016AC
:101D3000B6F5801F00D12043164E08363060361DA0
:101D40003068A0435E6806F40016B6F5001F00D1A7
:101D50002043104E0C363060491C1029FFF416AF9A
:101D6000F8BD00004438024008380140000002403D
:101D70000004024000080240000C02400010024033
:101D80000014024000180240001C024000200240E3
:101D900000240240003C01400AB1816101E00B04D3
:101DA000836170470148006870470000040000200C
:101DB00002480068401C0149086070470400002088
:101DC00010B50D48006840F400700B4908600846E3
:101DD000006840F4806008600846006840F4807045
:101DE0000860032000F0C6F8002000F007F800F0BB
:101DF0004BF8002010BD0000003C024070B588B0D8
:101E000004460025002600222146362000F074F802
:101E1000362000F064F800BF0020019016480068EA
:101E200040F01000144908600846006800F01000F7
:101E3000019000BF00BF02A903A800F0A1FB00F0C1
:101E4000C7FB45000D48B5FBF0F0461E0C480D4998
:101E5000086040F2E7310B48C16046600021016133
:101E6000816001F0D6FB20B9064801F0EDFB08B017
:101E700070BD0120FBE700004038024040420F00E7
:101E8000001000409C45002010B5032000F072F8BF
:101E9000002211466FF00B0000F02EF800221146D0
:101EA0006FF00A0000F028F8002211466FF00900D8
:101EB00000F022F800221146501F00F01DF8002209
:101EC0001146101F00F018F800220F21901E00F09C
:101ED00013F800220F21501E00F00EF810BD00BFB5
:101EE00000F01F02012191404209920002F1E0221C
:101EF000C2F8001100BF70472DE9F05F80460D4623
:101F00001646002702F02AFF074639462A4633467E
:101F100001F00700C0F1070ABAF1040F02D94FF02F
:101F2000040A01E0C0F1070AD14600F1040ABAF13F
:101F3000070F02D24FF0000A01E0A0F1030AD446D5
:101F40004FF0010A0AFA09FAAAF1010A0AEA020A9A
:101F50000AFA0CFA4FF0010B0BFA0CFBABF1010B78
:101F60000BEA030B4AEA0B042146404602F0FEFE50
:101F7000BDE8F09F00BF00F00702064B19684FF65E
:101F8000FF031940044B0B4343EA0221014B196044
:101F900000BF70470CED00E00000FA0538B50024E2
:101FA00000BF002000902348006840F08050214985
:101FB00008600846006800F08050009000BF00BF35
:101FC0000120010491FAA1F1B1FA81F11A4A42F813
:101FD0002100FFF7E7FE044607E0FFF7E3FE001BE2
:101FE000B0F57A7F01D9032038BD1448406800F469
:101FF0008030B0F5803FF0D10120410491FAA1F189
:10200000B1FA81F10C4A42F82100FFF7CBFE0446F9
:1020100007E0FFF7C7FE001BB0F57A7F01D9032068
:10202000E2E70648406800F40030B0F5003FF0D128
:102030000020D9E74038024000000E420070004006
:10204000F8B5044600250026207800F0010020B9EC
:10205000207800F00200022866D10020CE49886670
:10206000FFF7A0FE054606E0FFF79CFE401B022896
:1020700001D90320F8BDC9480068C0F3C06000283A
:10208000F2D1207800F0010098B147F6C07191FAC2
:10209000A1F1B1FA81F1606888404FF0E04292FA14
:1020A000A2F2B2FA82F2A16891400843BB4984319E
:1020B0000860207800F00200022821D1B74884305F
:1020C000006800F0E0404FF0E04191FAA1F1B1FA70
:1020D00081F120FA01F660688101207B41EA00600D
:1020E00040EA0670AD4984310860AC488C30006825
:1020F00020F01F00E169491E0843A8498C3108609F
:102100000120A5498866FFF74DFE054606E0FFF76A
:1021100049FE401B022801D90320ABE79F48006815
:10212000C0F3C0600028F2D0207800F0040004283A
:1021300004D0207800F0080008287DD100209649BE
:102140000867FFF72FFE054606E0FFF72BFE401B52
:10215000022801D903208DE790480068C0F3407041
:102160000028F2D1207800F00400042834D18B48F4
:102170008830006800F0E0404FF0E04191FAA1F1B2
:10218000B1FA81F120FA01F647F6C07191FAA1F196
:10219000B1FA81F1206988404FF0706292FAA2F2A0
:1021A000B2FA82F26169914008434FF0E04191FA3E
:1021B000A1F1B1FA81F106FA01F1084377498831BA
:1021C0000860081D006820F4F851206A401E41EAAA
:1021D000002072498C310860207800F0080008283F
:1021E00034D16E488830006800F070604FF0706144
:1021F00091FAA1F1B1FA81F120FA01F647F6C07126
:1022000091FAA1F1B1FA81F1206988404FF0706133
:1022100091FAA1F1B1FA81F106FA01F108434FF008
:10222000E04292FAA2F2B2FA82F2A1699140084326
:102230005A498831086000E01CE0081D006820F45D
:102240004030616A084355498C3108600120524989
:102250000867FFF7A7FD054606E0FFF7A3FD401B53
:10226000022801D9032005E74C480068C0F34070FC
:102270000028F2D0207800F0200020287ED100BF76
:102280000020009045484030006840F080504349AD
:10229000403108600846006800F08050009000BFA0
:1022A00000BF3F48006840F480703D490860FFF778
:1022B00079FD054606E0FFF775FD401B022801D9B0
:1022C0000320D7E63648006800F480700028F2D07A
:1022D00032487030006800F440764EB3208D00F430
:1022E0004070B04224D02D487030006820F4407611
:1022F00001202C49086000200860284870300660E2
:10230000006800F0010098B1FFF74CFD054608E0B9
:10231000FFF748FD401B41F28831884201D9032074
:10232000A8E61E4870300068C0F340000028EFD0D7
:1023300000BF208D00F44070B0F5407F0CD11748ED
:102340000830006820F4F810174AA16A11400843C9
:1023500012490831086007E010480830006820F48E
:10236000F8100E49083108600C4870300068218D63
:10237000C1F30B0108430949703100E001E0086036
:1023800000BF207800F01000102803D194F82C0032
:102390000649086000206DE6000047420038024010
:1023A00000700040400E4742FFFCFF0FE011474223
:1023B00070B504460D4600266D48006800F00F0019
:1023C000A84209D26A490D700846006800F00F0063
:1023D000A84201D0012070BD207800F00200022840
:1023E00007D16448006820F0F000A1680843614903
:1023F0000860207800F00100002877D0606801288C
:1024000007D15C4808380068C0F34040B8B90120E3
:10241000E1E76068022802D06068032807D15548C8
:1024200008380068C0F3406048B90120D3E751483C
:1024300008380068C0F3400008B90120CBE74D48D8
:10244000006820F00300616808434A490860FFF70C
:10245000A9FC06466068012810D108E0FFF7A2FC3D
:10246000801B41F28831884201D90320B3E74148FB
:10247000006800F00C000428F0D137E06068022802
:1024800010D108E0FFF78EFC801B41F288318842B2
:1024900001D903209FE73748006800F00C000828A6
:1024A000F0D123E06068032810D108E0FFF77AFC40
:1024B000801B41F28831884201D903208BE72D48E7
:1024C000006800F00C000C28F0D10FE008E0FFF7E6
:1024D00069FC801B41F28831884201D903207AE7E8
:1024E0002448006800F00C000028F0D12048006863
:1024F00000F00F00A84209D91D490D700846006878
:1025000000F00F00A84201D0012064E7207800F01D
:102510000400042807D11748006820F4E050E1685F
:10252000084314490860207800F00800082808D102
:102530001048006820F46040216940EAC1000D495C
:10254000086000F071F80B49096801F0F001F02211
:1025500092FAA2F2B2FA82F2D140074A515CC84024
:10256000064908600020FFF749FC002033E700001F
:10257000003C024008380240189800080000002083
:102580000F2202600D4A126802F0030242600B4AF9
:10259000126802F0F0028260084A126802F4E05207
:1025A000C260064A126802F46042D2080261044A1C
:1025B000126802F00F020A607047000008380240FB
:1025C000003C024001480068704700000000002005
:1025D00000B5FFF7F7FF0749096801F4E0514FF430
:1025E000E05292FAA2F2B2FA82F2D140024A515C6F
:1025F000C84000BD083802402898000800B5FFF721
:10260000E1FF0749096801F460414FF4604292FA22
:10261000A2F2B2FA82F2D140024A515CC84000BD37
:10262000083802402898000870B5002100220023D5
:102630000020274C246804F00C0424B1042C04D09E
:10264000082C41D103E0234840E023483EE0204CE1
:10265000241F246804F03F011D4C241F246804F447
:10266000800484B11C4CB4FBF1F5194C241F246880
:1026700047F6C076344096FAA6F6B6FA86F6F440E7
:1026800005FB04F20FE0134CB4FBF1F5104C241FD2
:10269000246847F6C076344096FAA6F6B6FA86F66F
:1026A000F44005FB04F20A4C241F246804F440346F
:1026B0004FF4403595FAA5F5B5FA85F5EC40641C64
:1026C0006300B2FBF3F001E0024800BF00BF70BD41
:1026D000083802400024F400001BB70038B5044657
:1026E0000025207800F00100002874D0F748006829
:1026F00000F00C0004280DD0F448006800F00C0035
:10270000082813D1F148001F006800F48000B0F5DC
:10271000800F0BD1ED4808380068C0F34040002816
:1027200059D06068002856D1012038BD00BF6068CC
:10273000B0F5803F08D1E5480838006840F48030A3
:10274000E249083908601EE06068B0F5A02F0DD19D
:10275000DE480838006840F48020DC490839086009
:102760000846006840F4803008600CE0D74808381C
:10277000006820F48030D5490839086008460068B0
:1027800020F48020086000BF606890B1FFF70AFB6A
:10279000054606E0FFF706FB401B642801D903202D
:1027A000C3E7CA4808380068C0F340400028F1D0A9
:1027B00011E0FFF7F7FA054606E0FFF7F3FA401BD2
:1027C000642801D90320B0E7C04808380068C0F386
:1027D00040400028F1D1207800F00200022869D1A1
:1027E000BA48006800F00C0058B1B848006800F022
:1027F0000C00082821D1B548001F006800F48000B3
:10280000D8B9B24808380068C0F3400020B1E06889
:10281000012801D0012088E7AC480838006820F082
:10282000F800F82292FAA2F2B2FA82F221699140FB
:102830000843A649083908603CE0E06828B3012055
:10284000A3490860FFF7AEFA054606E0FFF7AAFACB
:10285000401B022801D9032067E79C48083800681C
:10286000C0F340000028F1D098480838006820F0F4
:10287000F800F82292FAA2F2B2FA82F221699140AB
:10288000084392490839086014E000209049086024
:10289000FFF788FA054606E0FFF784FA401B022896
:1028A00001D9032041E7894808380068C0F3400097
:1028B0000028F1D1207800F0080008282CD16069A8
:1028C000A8B1012083490860FFF76CFA054606E0CD
:1028D000FFF768FA401B022801D9032025E77B484F
:1028E0006C300068C0F340000028F1D014E00020F4
:1028F00078490860FFF756FA054606E0FFF752FAF6
:10290000401B022801D903200FE770486C30006893
:10291000C0F340000028F1D1207800F00400042822
:102920007FD100BF0020009068483830006840F038
:1029300080506649383108600846006800F08050D1
:10294000009000BF00BF6448006840F48070624996
:102950000860FFF727FA054606E0FFF723FA401B59
:10296000022801D90320E0E65B48006800F480708B
:102970000028F2D000BFA068012808D15348683071
:10298000006840F001005149683108601DE0A0680E
:1029900005280DD14D486830006840F004004B49CF
:1029A000683108600846006840F0010008600CE0EB
:1029B00046486830006820F00100444968310860EA
:1029C0000846006820F00400086000BFA068A0B1BD
:1029D000FFF7E8F9054608E0FFF7E4F9401B41F28C
:1029E0008831884201D903209FE638486830006862
:1029F000C0F340000028EFD013E0FFF7D3F90546FD
:102A000008E0FFF7CFF9401B41F28831884201D935
:102A100003208AE62D4868300068C0F34000002893
:102A2000EFD1A069F0B32948006800F00C00082835
:102A300071D0A069022858D1002025490866FFF707
:102A4000B1F9054606E0FFF7ADF9401B022801D9B0
:102A500003206AE61D4808380068C0F3406000287B
:102A6000F1D1D4E90701084347F6C07292FAA2F205
:102A7000B2FA82F2616A914008430122A16AC2EB74
:102A800051014FF4403292FAA2F2B2FA82F291402E
:102A900008434FF0706292FAA2F2B2FA82F2E16A4F
:102AA000914000E039E008430849091F086001200F
:102AB00007490866FFF776F905460FE0FFF772F958
:102AC000401B02280AD903202FE6000008380240E4
:102AD00000004742800E47420070004010480068E6
:102AE000C0F340600028E9D017E000200D490866D7
:102AF000FFF758F9054606E0FFF754F9401B022896
:102B000001D9032011E606480068C0F340600028A0
:102B1000F2D102E0FFE7012007E6002005E6000011
:102B2000003802400000474202460023106800F1CE
:102B3000500303EB81031868704710B50023046845
:102B400004F1500303EB81031A6010BD2DE9F0413D
:102B500004460D461646002700BF207F012802D1FB
:102B60000220BDE8F0810120207700BF02206077BD
:102B700000BFCA202168486253202168486200BF14
:102B80002068806800F48060E0B1FFF70BF9074629
:102B900012E0FFF707F9C01BB0F57A7F0CD900BF30
:102BA000FF202168486200BF0320607700BF00203B
:102BB000207700BF0320D4E72068C068C0F38000FE
:102BC0000028E6D12068806820F480602168886051
:102BD000FFF7E8F8074612E0FFF7E4F8C01BB0F58E
:102BE0007A7F0CD900BFFF202168486200BF032014
:102BF000607700BF0020207700BF0320B1E7206886
:102C0000C068C0F380000028E6D02068806820F00B
:102C100007002168886020688068304321688860E8
:102C2000206845612068806840F480602168886081
:102C300000BFFF202168486200BF0120607700BF0D
:102C40000020207700BF00BF8BE7000010B50446CE
:102C50000CB9012010BD607F20B9002020772046EC
:102C600000F04EF80220607700BFCA202168486259
:102C700053202168486200BF204602F0D3F840B1DB
:102C800000BFFF202168486200BF04206077012058
:102C9000E0E7206880681949084021688860216958
:102CA00060680843616908432168896808432168AE
:102CB00088602168E068086120680169208941EA2C
:102CC0000040216808612068C06820F08000216809
:102CD000C8602068006C20F48020216808642068A7
:102CE000006CA16908432168086400BFFF202168C7
:102CF000486200BF012060770020ABE7BFFF8FFF75
:102D0000034A0168914202D10121024A11607047D1
:102D1000002800403C0E47422DE9F04104460D4694
:102D20001646002700BF207F012802D10220BDE8FF
:102D3000F0810120207700BF022060774EB96878CB
:102D400000F01000102804D1687800F0EF000A307D
:102D5000687086B9E87802F058F80304687802F0E1
:102D600054F843EA0023A87802F04FF80343287888
:102D700043EA403711E0687802F03CF80746A8784B
:102D800002F038F80746E8780004697840EA012044
:102D9000A9780843297840EA413700BFCA20216852
:102DA000486253202168486200BF204602F03AF88A
:102DB00060B100BFFF202168486200BF0420607737
:102DC00000BF0020207700BF0120B0E71648384040
:102DD000216848602068C06820F080002168C860D1
:102DE0002068806800F0200080B9204600F0B8F824
:102DF00060B100BFFF202168486200BF04206077F7
:102E000000BF0020207700BF012090E700BFFF2017
:102E10002168486200BF0120607700BF0020207752
:102E200000BF00BF83E700003FFFFF002DE9F04136
:102E300004460D461646002700BF207F012802D118
:102E40000220BDE8F0810120207700BF02206077DA
:102E5000CEB92068806800F0400000B102E0002098
:102E6000E87000BF287801F0D0FF0304687801F013
:102E7000CCFF43EA0023A87801F0C7FF0343E878BA
:102E800043EA004716E02068806800F0400020B167
:102E9000287801F0AFFF074602E00020E87000BF8D
:102EA00028780004697840EA0120A9780843E97885
:102EB00040EA014700BFCA202168486253202168C8
:102EC000486200BF204601F0ADFF60B100BFFF20A7
:102ED0002168486200BF0420607700BF002020778F
:102EE00000BF0120ADE71D48384021680860206818
:102EF000806820F4802021688860D5E903010843B8
:102F0000216889680843216888602068C06820F0CB
:102F100080002168C8602068806800F0200080B9C7
:102F2000204600F01DF860B100BFFF202168486214
:102F300000BF0420607700BF0020207700BF012081
:102F40007FE700BFFF202168486200BF0120607753
:102F500000BF0020207700BF00BF72E77F7F7F00A7
:102F600070B5044600252068C06820F0A0002168E4
:102F7000C860FEF717FF054607E0FEF713FF401B8A
:102F8000B0F57A7F01D9032070BD2068C06800F0D9
:102F900020000028F1D00020F6E770477047F8B510
:102FA000044604260025002000906946204602F0D1
:102FB000FAF8054615B1A06B2843A0630098C0F34A
:102FC00043263046F8BD000070B504460025206851
:102FD000406BC0F30020002863D04FF4807021685C
:102FE00088632068C06B40F23A3188432168C86327
:102FF000206B00F0080048B3206B00F0020018B905
:10300000206B00F0200050B1206801F07DFF0546E4
:103010002DB1A06B2843A0632046FFF7BFFF40F20D
:10302000FF5021688863012084F83400206B00F091
:10303000010018B9206B00F0020018B1204600F022
:10304000C3F8BCE0204600F0C0F8B8E0206B00F008
:1030500080000028F5D0206B00F0200050B12068DF
:1030600001F052FF05462DB1A06B2843A063204616
:10307000FFF794FF206B00F001000028E1D1206BE6
:1030800000F002000028DCD12068C06A20F00800AF
:103090002168C862012084F83400204600F095F8C9
:1030A0008DE02068406BC0F3803038B14FF4804031
:1030B00021688863204602F08FF880E02068406B2A
:1030C000C0F3C03038B14FF4004021688863204617
:1030D00002F056F873E02068406B40F23A21084055
:1030E00008B1012000E00020002868D02068406B73
:1030F000C0F3400018B1A06B40F00200A06320684C
:10310000406BC0F3C00018B1A06B40F00800A06392
:103110002068406BC0F3401018B1A06B40F0200055
:10312000A0632068406BC0F3001018B1A06B40F0A2
:103130001000A0632068406BC0F3402018B1A06B62
:1031400040F00800A06340F2FF70216888632068A7
:10315000C06B40F23A3188432168C863206B00F0AD
:10316000800010B3206C50B11548216C0865206CAC
:10317000FEF713FB10B1206C01F0DCFF1FE0E06BE9
:1031800050B11048E16B0865E06BFEF706FBB0B18B
:10319000E06B01F0A9FF12E00020A063012084F899
:1031A00034002046FFF7F9FE09E0206B00F008002C
:1031B00028B1012084F834002046FFF7EFFE70BDEF
:1031C00035510008E95000087047704710B50446B3
:1031D0000CB9012010BD606A00B900BF0021A162D6
:1031E00094F8510028B9002084F85000204600F0DF
:1031F00033F8022084F851002068006820F0400075
:1032000021680860D4E901010843E16808432169A5
:10321000084361690843218B01F400710843E169A7
:103220000843216A0843A16A084321680860042111
:10323000A06901EA1040616A08432168486020687B
:10324000C06920F400602168C86100206065012029
:1032500084F851000020BDE710B586B0044612493D
:10326000206888421ED100BF002000900F480068EF
:1032700040F480100D4908600846006800F4801092
:10328000009000BF00BF4FF46070019002200290D8
:1032900000200390032004900520059001A9044814
:1032A000FEF76CFC06B010BD0050014044380240EF
:1032B000001402402DE9FE4F04460D4616461F46F7
:1032C000DDF830804FF0000A0020029081464FF078
:1032D000010B019000BF94F85000012802D1022098
:1032E000BDE8FE8F012084F8500000BFFEF75AFDB4
:1032F000814694F851A060680290BAF1010F0BD09A
:103300000298B0F5827F04D1A06810B9BAF1040F19
:1033100002D002200190D2E00DB106B117B9012010
:103320000190CCE094F85100012802D1052084F8E6
:10333000510000206065A663E787A7872563E786BD
:10334000A786206460642068006800F04000402880
:1033500005D02068006840F0400021680860E068FF
:10336000B0F5006F43D1606810B1E08E012806D13E
:1033700028882168C860AD1CE08E401EE0862FE0E2
:10338000BBF1000F10D0E08E70B12068806800F0B3
:103390000200022808D128882168C860AD1CE08E90
:1033A000401EE0864FF0000BE08F68B12068806817
:1033B00000F0010040B12068C0683080B61CE08F8A
:1033C000401EE0874FF0010B08F1010040B1FEF70D
:1033D000E9FCA0EB0900404502D3032001906EE018
:1033E000E08E0028CCD1E08F0028C9D142E060688F
:1033F00010B1E08E012806D12878216808736D1C71
:10340000E08E401EE0862FE0BBF1000F10D0E08E72
:1034100070B12068806800F00200022808D115F819
:10342000010B21680873E08E401EE0864FF0000B10
:10343000E08F68B12068806800F0010040B120682A
:10344000C06806F8010BE08F401EE0874FF0010BCB
:1034500008F1010040B1FEF7A5FCA0EB09004045D2
:1034600002D3032001902AE0E08E0028CCD1E08F27
:103470000028C9D14346012202212046CDF8009000
:1034800001F0D1FE10B10320019018E04A464146F8
:10349000204601F0B4FE20B101200190202060659B
:1034A0000DE0A06850B900BF002000902068C068FF
:1034B000009020688068009000BF00BF00BF01201E
:1034C00084F8510000BF002084F8500000BF01982C
:1034D00006E7042808D14FF0E021096941F0040112
:1034E0004FF0E022116107E04FF0E021096921F07F
:1034F00004014FF0E0221161704770B50446254683
:10350000681EB0F1807F01D301200FE0681E4FF0EC
:10351000E02148610F214FF0FF3001F027FC00202F
:103520004FF0E021886107200861002070BD7047DE
:10353000704710B50346002200BF93F838000128F9
:1035400001D1022010BD012083F8380000BF22F015
:10355000FF00CC6840EA040222F440708C6840EA24
:10356000040222F480604C6840EA040222F4006005
:103570000C6840EA040222F480500C6940EA04021C
:1035800022F400504C6940EA040222F480408C6925
:1035900040EA040222F400408C6940EA0402186800
:1035A000426400BF002083F8380000BF00BFC9E7B5
:1035B000024600BF92F83800012801D1022070476E
:1035C000012082F8380000BF022082F8390010681C
:1035D000406820F0700013685860106840680B68FD
:1035E0001843136858601068806820F080001368E2
:1035F0009860106880684B681843136898600120D1
:1036000082F8390000BF002082F8380000BF00BFF8
:10361000D5E710B504460CB9012010BD94F8390067
:1036200028B9002084F83800204600F00CF8022069
:1036300084F83900211D206801F01EFF012084F864
:1036400039000020E9E7704701460868C06840F08B
:1036500001000A68D0600868006840F001000A684C
:10366000106000207047704710B50446206800695C
:10367000C0F34000D8B12068C068C0F34000B0B1CA
:103680006FF00200216808610120207620688069BF
:1036900000F0030018B12046FFF7E5FF05E02046E3
:1036A00000F068F9204600F0ABFA00202076206890
:1036B0000069C0F38000D8B12068C068C0F3800002
:1036C000B0B16FF004002168086102202076206804
:1036D000806900F4407018B12046FFF7C4FF05E090
:1036E000204600F047F9204600F08AFA00202076B4
:1036F00020680069C0F3C000D8B12068C068C0F37A
:10370000C000B0B16FF00800216808610420207685
:103710002068C06900F0030018B12046FFF7A3FF3E
:1037200005E0204600F026F9204600F069FA002066
:10373000207620680069C0F30010D8B12068C06806
:10374000C0F30010B0B16FF01000216808610820CC
:1037500020762068C06900F4407018B12046FFF759
:1037600082FF05E0204600F005F9204600F048FA07
:10377000002020762068006900F0010058B1206820
:10378000C06800F0010030B16FF0010021680861ED
:10379000204600F05DFA20680069C0F3C01058B1FF
:1037A0002068C068C0F3C01030B16FF0800021689D
:1037B00008612046FFF7BBFE20680069C0F3801057
:1037C00058B12068C068C0F3801030B16FF040007D
:1037D00021680861204600F047FA20680069C0F3BC
:1037E000401058B12068C068C0F3401030B16FF08D
:1037F0002000216808612046FFF79AFE10BD0000F6
:1038000010B586B004464F49206888421CD14FF459
:10381000407001900220029000200390049001204B
:10382000059001A94848FEF7A9F94FF4C04001905E
:10383000022002900020039004900120059001A92D
:103840004248FEF79BF97AE02068B0F1804F0DD135
:103850000F2001900220029000200390049001208C
:10386000059001A93848FEF789F968E038492068D1
:1038700088420DD130200190022002900020039058
:1038800004900220059001A93248FEF777F956E02E
:103890003149206888420ED14FF4704001900220D7
:1038A00002900020039004900220059001A92B486B
:1038B000FEF764F943E02A49206888421BD10120C1
:1038C00001900220029000200390049002200590B5
:1038D00001A92448FEF752F94FF4E050019002206C
:1038E00002900020039004900220059001A91E4838
:1038F000FEF744F923E01D49206888420DD1E420F9
:103900000190022002900020039004900320059073
:1039100001A91448FEF732F911E0154920688842E0
:103920000DD14FF4107001900220029000200390FE
:1039300004900920059001A90B48FEF71FF906B075
:1039400010BD0000000001400000024000100240D5
:10395000000400400004024000080040000C024047
:10396000000C004000200240001C02400004014006
:1039700000180040704770B504460D46164600BF5B
:1039800094F83800012801D1022070BD012084F88C
:10399000380000BF022084F8390036B1042E1BD055
:1039A000082E31D00C2E5ED145E02946206801F06A
:1039B000E3FD2068806940F0080021688861206884
:1039C000806920F004002168886120688069296985
:1039D00008432168886147E02946206801F004FE19
:1039E0002068806940F400602168886120688069EF
:1039F00020F480602168886120688069296940EA34
:103A00000120216888612FE02946206801F028FE06
:103A10002068C06940F008002168C8612068C0695A
:103A200020F004002168C8612068C0692969084342
:103A30002168C86118E02946206801F04DFE206821
:103A4000C06940F400602168C8612068C06920F442
:103A500080602168C8612068C069296940EA012046
:103A60002168C86100E000BF00BF012084F8390070
:103A700000BF002084F8380000BF00BF85E710B504
:103A800004460CB9012010BD94F8390028B9002073
:103A900084F83800204600F00DF8022084F8390040
:103AA000211D206801F0E8FC012084F83900002085
:103AB000E9E7000008B54B4A016891420FD100BF09
:103AC000002100914849096841F00101464A11600E
:103AD0001146096801F00101009100BF81E0016811
:103AE000B1F1804F11D100BF002100913E49091F63
:103AF000096841F001013C4A121F11601146096832
:103B000001F00101009100BF6BE0384A0168914269
:103B100011D100BF002100913349091F096841F00C
:103B20000201314A121F11601146096801F00201B9
:103B3000009100BF55E02E4A0168914211D100BFAB
:103B4000002100912849091F096841F00401264A13
:103B5000121F11601146096801F00401009100BFB5
:103B60003FE0244A0168914211D100BF0021009139
:103B70001D49091F096841F008011B4A121F116005
:103B80001146096801F00801009100BF29E01A4AB6
:103B9000016891420FD100BF0021009112490968CC
:103BA00041F00201104A11601146096801F002015A
:103BB000009100BF15E0114A0168914211D100BF88
:103BC000002100910849091F096841F04001064A97
:103BD000121F11601146096801F04001009100BFF9
:103BE00000BF08BD0000014044380240000400400E
:103BF00000080040000C0040000401400018004094
:103C00007047000030B504460D4601222946206861
:103C100001F0A4FC0C492068884203D00B492068BD
:103C2000884201D1012000E0002028B12068406CCA
:103C300040F40040216848642068006840F00100BA
:103C400021680860002030BD0000014000040140F0
:103C500010B5044603492068884201D1FEF7A8F850
:103C600010BD000000100040704770472DE9F0477C
:103C70000446206805682068C668206847694FF0D8
:103C80000008C14605F00F08B8F1000F0AD105F091
:103C9000200038B106F0200020B1204601F0A9FD37
:103CA000BDE8F087B8F1000F6DD007F0010018B93A
:103CB00006F49070002866D005F0010030B106F4DB
:103CC000807018B1E06B40F00100E06305F0040083
:103CD00030B107F0010018B1E06B40F00200E06382
:103CE00005F0020030B107F0010018B1E06B40F0C0
:103CF0000400E06305F0080030B107F0010018B1DE
:103D0000E06B40F00800E063E06B68B305F0200072
:103D100028B106F0200010B1204601F06AFD2068AD
:103D20004069C0F38019E06B00F0080010B9B9F1E8
:103D3000000F22D0204601F009FD2068406900F004
:103D40004000B0B12068406920F04000216848611F
:103D5000606B50B11748616B0865606BFDF71DFD26
:103D600010B1606B016D88470CE02046FFF77DFFC6
:103D700008E02046FFF779FF04E02046FFF775FFD3
:103D80000020E0638CE705F0800030B106F0800091
:103D900018B1204601F02EFF82E705F0400030B157
:103DA00006F0400018B1204601F0E0FC78E700BFC3
:103DB00076E700003957000810B504460CB9012019
:103DC00010BDA06900B100E000BF94F8390028B927
:103DD000002084F83800204600F028F8242084F8D9
:103DE00039002068C06820F400502168C86020466F
:103DF00001F04CFD2068006920F4904021680861C2
:103E00002068406920F02A00216848612068C06865
:103E100040F400502168C8600020E063202084F84E
:103E2000390084F83A000020CAE7000010B586B0D7
:103E30000446CD492068884248D100BF0020009048
:103E4000CA48006840F01000C84908600846006889
:103E500000F01000009000BF00BFC02001900220C1
:103E6000029001200390032004900720059001A9EF
:103E7000BF48FDF783FEBF48BF4908604FF00060B0
:103E800048600021BC488160C1604FF480610161DD
:103E90000021416181614FF48071C16100210162A3
:103EA0004162FDF7B3FD18B1BA21B4A001F000FFE3
:103EB00000BFB1486063846300BF00220521252054
:103EC000FEF71AF82520FEF70AF84AE1AF49206804
:103ED000884268D100BF00200090A448001F0068FD
:103EE00040F40030A149091F08600846006800F44A
:103EF0000030009000BF00BF6020019002200290BF
:103F000001200390032004900720059001A9A048F8
:103F1000FDF734FE9F48A04908604FF000604860FC
:103F200000219D488160C1604FF4806101610021E2
:103F300041618161C16101624162FDF767FD18B1B4
:103F4000E7218EA001F0B4FE00BF93486063846354
:103F500000BF90481830914908604FF000604860F9
:103F600040218E4881600021C1604FF48061016171
:103F7000002141618161C16101624162FDF746FD3D
:103F800018B1F9217DA001F093FE00BF83482063A2
:103F9000846300BF002205212620FDF7ADFF262007
:103FA000FDF79DFFDDE07E49206888426CD100BFAF
:103FB000002000906D48001F006840F480206B498D
:103FC000091F08600846006800F48020009000BFC8
:103FD00000BF4FF440700190022002900120039036
:103FE000032004900720059001A96948FDF7C6FD4C
:103FF000684860386B4908604FF0006048600021F5
:1040000068488160C1604FF48061016100214161B5
:104010008161C16101624162FDF7F8FC20B14FF49A
:10402000937156A001F044FE00BF5E486063846354
:1040300000BF584830385C4908604FF00060486065
:104040004021594881600021C1604FF480610161C5
:10405000002141618161C16101624162FDF7D6FCCD
:1040600020B14FF49C7145A001F022FE00BF4E48E4
:104070002063846300BF002205212720FDF73CFF59
:104080002720FDF72CFF6CE048492068884268D162
:1040900000BF002000903548006840F02000334900
:1040A00008600846006800F02000009000BF00BFD4
:1040B0004FF48440019002200290012003900320DD
:1040C00004900820059001A93948FDF757FD2948BB
:1040D00018383849086080054860002135488160FB
:1040E000C1604FF480610161002141618161C16162
:1040F00001624162FDF78AFC20B140F265111FA008
:1041000001F0D6FD00BF2B486063846300BF1948EF
:104110007830294908604FF02060486040212648E7
:1041200081600021C1604FF4806101610021416123
:104130008161C16101624162FDF768FC20B140F21A
:1041400077110EA001F0B4FD00BF1B48206384630B
:1041500000BF002205214720FDF7CEFE4720FDF7D6
:10416000BEFE06B010BD0000001001404438024001
:104170000004024040640240384100202E2E2F539C
:1041800072632F75736172742E63000000440040E7
:10419000000C02408860024098410020F841002055
:1041A0000048004058420020B8420020001401405E
:1041B00000180240184300207843002010B5044640
:1041C000204604F0A5FC10BD10B50446204604F0BE
:1041D000F9FC10BD00BFFEE710B50F480F4908609D
:1041E0000520486000210D488160C1604FF4003116
:1041F000016149014161002181610121C161002109
:10420000016241628162C162FCF7DEFE18B1502199
:1042100003A001F04DFD10BD006400401C450020CE
:104220002E2E2F5372632F63616E2E6300000000E9
:1042300010B51048104908600520486000210E485C
:1042400081604FF04071C1604FF40031016149015C
:104250004161002181610121C1610021016241624E
:104260008162C162FCF7B0FE18B1662103A001F0C3
:104270001FFD10BD006800405C4500202E2E2F530E
:1042800072632F63616E2E630000000008B500BFEB
:10429000002000903248006840F4800030490860F7
:1042A0000846006800F48000009000BF00BF00BF17
:1042B000002000900846006840F40010086008469E
:1042C000006800F40010009000BF00BF002205212C
:1042D0000C20FDF711FE0C20FDF701FE0022052148
:1042E0000E20FDF709FE0E20FDF7F9FD0022052145
:1042F0001020FDF701FE1020FDF7F1FD0022052141
:104300001120FDF7F9FD1120FDF7E9FD002205213F
:104310003920FDF7F1FD3920FDF7E1FD00220521EF
:104320003A20FDF7E9FD3A20FDF7D9FD00220621EC
:104330003B20FDF7E1FD3B20FDF7D1FD00220621EA
:104340004520FDF7D9FD4520FDF7C9FD00220521D7
:104350004620FDF7D1FD4620FDF7C1FD08BD000058
:104360003038024000B587B000BF0020019072488D
:10437000006840F01000704908600846006800F0CE
:104380001000019000BF00BF00BF00200190084650
:10439000006840F0020008600846006800F0020073
:1043A000019000BF00BF00BF0020019008460068D8
:1043B00040F0400008600846006800F040000190AE
:1043C00000BF00BF00BF002001900846006840F019
:1043D000040008600846006800F00400019000BF77
:1043E00000BF00BF002001900846006840F00100B7
:1043F00008600846006800F00100019000BF00BF9F
:1044000000BF002001900846006840F008000860E6
:104410000846006800F00800019000BF00BF00BF20
:10442000002001900846006840F48070086008464B
:10443000006800F48070019000BF00BF00BF002042
:1044400001900846006840F0800008600846006857
:1044500000F08000019000BF00BF00BF002001906D
:104460000846006840F0200008600846006800F038
:104470002000019000BF00BF002284212F48FDF7DB
:104480008BFC00224FF400512D48FDF785FC0022E3
:1044900044F240012B48FDF77FFC8420029001206C
:1044A000039000200490059002A92448FDF766FBC4
:1044B00002200290244803900020049002A91F4883
:1044C000FDF75CFB4FF400500290012003900020A8
:1044D0000490059002A91A48FDF750FB4FF40070B4
:1044E0000290002003900120049002A91748FDF7D4
:1044F00045FB44F24000029001200390002004900C
:10450000059002A90F48FDF739FB4FF48060029037
:1045100000200390049002A90D48FDF72FFB4FF4F3
:104520000040029000200390049002A90348FDF788
:1045300025FB07B000BD00003038024000100240EB
:104540000018024000140240000011100020024038
:10455000000C024000B587B02C482D4908600020AF
:1045600048607C212A488160FF21C16000210161EF
:1045700041618161FEF76AFB18B14C2125A001F071
:1045800097FB00212248FEF7CFFA43F2F22188423E
:1045900030D00A208DF808001E208DF80900002078
:1045A0008DF80A0005900690002202A91848FEF72F
:1045B0003DFC18B1592117A001F07AFB03208DF8BA
:1045C000040010208DF8050012208DF8060011203F
:1045D0008DF80700002201A90D48FEF79DFB18B1D8
:1045E00063210CA001F064FB43F2F2220021084891
:1045F000FEF7A3FA002211460548FEF7A7FA18B104
:104600006C2104A001F054FB07B000BD002800405D
:10461000D84500202E2E2F5372632F7274632E63A1
:10462000000000000648074908600020486000219B
:1046300004488160C160016141618161704700008F
:10464000002C0140D843002010B50F480F490860E6
:104650004FF48270486000210C488160C1600161A4
:1046600041614FF4007181611821C1610021016233
:10467000416281620A21C162FEF7A8FD18B14F2193
:1046800003A001F015FB10BD00500140F8450020CB
:104690002E2E2F5372632F7370692E63000000005B
:1046A00000B587B01B481C490860592048600021AC
:1046B0001948816040F6C311C16000210161FFF714
:1046C000DEF920B140F2911114A001F0F1FA60205E
:1046D00000904FF47A700190002002900490002224
:1046E00069460D48FFF747F920B14FF4CD710BA093
:1046F00001F0DEFA042269460748FFF73CF920B1D1
:1047000040F29F1105A001F0D3FA0348FFF778F8B3
:1047100007B000BD00180040FC3F00202E2E2F5394
:1047200072632F74696D2E630000000000B591B0B4
:10473000364837490860B32048600021344881601A
:1047400040F6C311C160002101614161FFF797F993
:1047500018B150212FA001F0ABFA00200F9010905B
:104760000FA92B48FEF724FF18B1572129A001F00B
:104770009FFA602008904FF47A70099000200A9008
:104780000B900C900D900E90002208A92048FFF786
:10479000F2F818B163211FA001F08AFA042208A9D7
:1047A0001B48FFF7E8F818B168211AA001F080FA59
:1047B000082208A91648FFF7DEF818B16D2115A0E8
:1047C00001F076FA0C2208A91148FFF7D4F818B1C5
:1047D000722110A001F06CFA002001900290039069
:1047E000049005904FF4005006900020079001A916
:1047F0000748FEF79EFE18B17E2106A001F058FA88
:104800000348FEF7FDFF11B000BD000000000140AD
:10481000943E00202E2E2F5372632F74696D2E63E9
:104820000000000000B589B04FF0804029490860C1
:104830005920486000212748816040F6C311C160BB
:1048400000210161FFF71BF918B1912122A001F0AD
:104850002FFA00200790089007A91E48FEF7A8FE2F
:1048600018B198211CA001F023FA602000904FF4A9
:104870007A70019000200290049000226946154849
:10488000FFF779F818B1A12113A001F011FA042261
:1048900069461048FFF76FF818B1A6210EA001F085
:1048A00007FA082269460B48FFF765F818B1AB21F3
:1048B00009A001F0FDF90C2269460648FFF75BF8F4
:1048C00018B1B02104A001F0F3F90248FEF798FFF7
:1048D00009B000BDD03E00202E2E2F5372632F74DE
:1048E000696D2E630000000000B589B01D481E49A7
:1048F00008605920486000211B488160C160016147
:10490000FFF7BDF818B1C32118A001F0D1F90020BC
:104910000790089007A91448FEF74AFE18B1CA216B
:1049200012A001F0C5F960200090002001900290D3
:104930000490002269460C48FFF71DF818B1D321F6
:104940000AA001F0B5F9042269460748FFF713F8F9
:1049500018B1D82105A001F0ABF90348FEF750FFCC
:1049600009B000BD000400400C3F00202E2E2F5344
:1049700072632F74696D2E630000000000B589B06A
:104980002B482C4908605920486000212948816043
:1049900040F6C311C16000210161FFF770F818B142
:1049A000EB2125A001F084F900200790089007A9C9
:1049B0002048FEF7FDFD18B1F2211FA001F078F9A3
:1049C000602000904FF47A700190002002900490D3
:1049D000002269461748FEF7CEFF18B1FB2116A04A
:1049E00001F066F9042269461248FEF7C4FF20B1BF
:1049F0004FF4807110A001F05BF9082269460D4860
:104A0000FEF7B9FF20B140F205110BA001F050F9FB
:104A10000C2269460748FEF7AEFF20B14FF48571BE
:104A200005A001F045F90348FEF7EAFE09B000BD14
:104A300000080040483F00202E2E2F5372632F7431
:104A4000696D2E630000000000B589B02D482E4925
:104A500008605920486000212B48816040F6C3114E
:104A6000C16000210161FFF70AF820B140F21D1179
:104A700026A001F01DF900200790089007A9224800
:104A8000FEF796FD20B14FF4927120A001F010F9CD
:104A9000602000904FF47A70019000200290049002
:104AA000002269461848FEF766FF20B140F22D113A
:104AB00016A001F0FDF8042269461348FEF75BFFDB
:104AC00020B14FF4997111A001F0F2F80822694663
:104AD0000D48FEF750FF20B140F237110BA001F056
:104AE000E7F80C2269460848FEF745FF20B14FF46D
:104AF0009E7106A001F0DCF80348FEF781FE09B0C4
:104B000000BD0000000C0040843F00202E2E2F53DB
:104B100072632F74696D2E630000000000B591B0C0
:104B200039483A490860B32048600021374881601D
:104B300040F6C311C160002101614161FEF79FFF92
:104B400020B140F2511132A001F0B2F800200F90D4
:104B500010900FA92D48FEF72BFD20B14FF4AC713A
:104B60002BA001F0A5F8602008904FF47A7009900E
:104B700000200A900B900C900D900E90002208A936
:104B80002248FEF7F8FE20B14FF4B27120A001F0E8
:104B90008FF8042208A91D48FEF7EDFE20B140F26F
:104BA00069111BA001F084F8082208A91748FEF734
:104BB000E2FE20B14FF4B77115A001F079F80C2294
:104BC00008A91248FEF7D7FE20B140F2731110A0D9
:104BD00001F06EF80020019002900390049005907F
:104BE0004FF4005006900020079001A90748FEF7F7
:104BF000A0FC20B140F27F1105A001F059F8034854
:104C0000FEF7FEFD11B000BD00040140C03F0020D2
:104C10002E2E2F5372632F74696D2E6300000000D7
:104C200010B50C480C4908600C48486000210A483F
:104C30008160C1604FF4806101610C2141610021FC
:104C40008161C161FFF7B8F818B1572104A001F0E4
:104C50002FF810BD0010014038400020A086010050
:104C60002E2E2F5372632F75736172742E630000A2
:104C700010B50C480C4908604FF4E1304860002141
:104C800009488160C16001610C214161002181619D
:104C9000C161FFF791F818B16A2104A001F008F88A
:104CA00010BD000000440040784000202E2E2F53FD
:104CB00072632F75736172742E63000010B50C4817
:104CC0000C4908604FF4E1304860002109488160D8
:104CD000C16001610C21416100218161C161FFF767
:104CE0006BF818B17D2104A000F0E2FF10BD0000B8
:104CF00000480040B84000202E2E2F5372632F75BD
:104D0000736172742E63000010B50C480C49086082
:104D10004FF461204860002109488160C160016151
:104D20000C21416100218161C161FFF745F818B193
:104D3000902104A000F0BCFF10BD00000014014051
:104D4000F84000202E2E2F5372632F7573617274FA
:104D50002E63000000BFFEE77047000002480068B5
:104D6000C0F30220704700000CED00E010B50028F1
:104D700007DA0A07140E054A00F00F031B1FD4546C
:104D800003E00A07130E024A135410BD18ED00E0A9
:104D900000E400E02DE9F0412DED048B04460D46C2
:104DA00016461F46B0EE408AF0EE608AB0EE419A99
:104DB0000E4860640E48A064B0EE491AF0EE680A2E
:104DC000B0EE480A3B46324629462046D4F844C055
:104DD000E047B0EE491AF0EE680AB0EE480A204605
:104DE000A16C8847BDEC048BBDE8F08131840008DC
:104DF00045840008014600BF080900EB800042001E
:104E000001F00F001044C0B270470146002203E0D9
:104E1000521CA1F10A00C1B20A29F9D2100741EAD5
:104E20001060704770B5044600252068C06800F027
:104E30004000A0B9681E2168C860FCF7B3FF0546B2
:104E400007E0FCF7AFFF401BB0F57A7F01D90320E4
:104E500070BD2068C06800F040000028F1D000203C
:104E6000F6E701460869C0B2704708B5024600205F
:104E7000009002F11400084400900098006808BDFA
:104E800010B50248FEF7A0F810BD0000D84300207E
:104E90000146D1F88000704710B50246002308682B
:104EA0009060D1E901042043CC6820430C69204381
:104EB0000343D0686FF30B001843D060002010BD8F
:104EC00002460868C2F880000020704770B586B0BE
:104ED00005460C46002601940D20029040200390C8
:104EE000002004904FF48060059001A92846FFF748
:104EF000D3FF41F288320D21284600F023F8064600
:104F0000304606B070BD000030B585B004460025BF
:104F1000002000900C20019040200290002003907F
:104F20004FF48060049069462046FFF7B5FF044ABD
:104F30000C21204600F006F80546284605B030BD95
:104F400000E1F5052DE9F04105460E461746644897
:104F50000068C0084FF47A71B0FBF1F000FB07F86D
:104F600000BF5FEA0800A8F1010803D14FF000403C
:104F7000BDE8F081686B00F045000028F1D0686B57
:104F800000F0040010B10420A863F1E7686B00F0A2
:104F9000010010B10120A863EAE72846FFF761FF8E
:104FA000B04201D00120E3E740F2FF50A8630021A6
:104FB0002846FFF75AFF04464A48204008B9002017
:104FC000D6E704F00040B0F1004F02D14FF000707E
:104FD000CEE704F08040B0F1804F01D14020C7E718
:104FE00004F00050B0F1005F01D18020C0E704F070
:104FF0008050B0F1805F02D14FF48070B8E704F0C8
:105000000060B0F1006F02D14FF40070B0E704F01F
:105010008060B0F1806F02D14FF48060A8E704F0A7
:105020008070B0F1807F02D14FF40060A0E704F4FB
:105030000000B0F5000F02D14FF4805098E704F45F
:105040008000B0F5800F02D14FF4005090E704F4D7
:105050000010B0F5001F02D14FF4804088E704F43F
:105060008010B0F5801F02D14FF4004080E704F4B7
:105070008020B0F5802F02D14FF4003078E704F49F
:105080000030B0F5003F02D14FF4802070E704F407
:105090008030B0F5803F02D14FF4002068E704F47F
:1050A0000040B0F5004F02D14FF4801060E704F4E7
:1050B0008040B0F5804F02D14FF4001058E704F45F
:1050C0000050B0F5005F02D14FF4800050E704F0CB
:1050D0000800082801D100054AE74FF4803047E76F
:1050E0000000002008E0FFFD70B50646B46BE06BE1
:1050F00008B10020E063206CD8B92046FDF74FFFCF
:1051000005460020A063012084F83400062D01D05C
:10511000052D0ED12068FFF7F7FEA16B0843A063B1
:10512000A06B18B12046FDF738FF02E02046FDF7DE
:1051300035FF70BD70B50646B46B206C08B1002019
:105140002064E06BD8B92046FDF729FF0546002012
:10515000A063012084F83400062D01D0052D0ED166
:105160002068FFF7D1FEA16B0843A063A06B18B1C4
:105170002046FDF712FF02E02046FDF70FFF70BD4D
:1051800070B504460025A66A00BF05E02068FFF759
:105190007FFE46F825006D1C082DF7D3A06A20304D
:1051A000A062002070BD70B504460D46002615B9FA
:1051B0004FF0006070BD5022125B11042068FFF7B1
:1051C00085FE06460EB13046F4E700212068FFF761
:1051D0004CFE28600020EDE770B504460025266AE5
:1051E00000BF05E006EB85012068FFF769FE6D1C36
:1051F000082DF7D3206A20302062002070BDF8B55A
:1052000004460D4616462B46002280212046009675
:1052100000F009F828B1606D40F0200060650320BF
:10522000F8BD0020FCE72DE9F04104460E46174684
:105230001D46DDF818803FE0681CE0B32DB1FCF797
:10524000B1FDA0EB0800A84236D32068406820F0EA
:10525000E000216848606068B0F5827F0DD1A068E9
:10526000B0F5004F03D0A068B0F5806F05D120687D
:10527000006820F0400021680860A06AB0F5005F77
:105280000ED100BF206800684DF6FF71084021680C
:1052900008602068006840F400502168086000BF82
:1052A000012084F8510000BF002084F8500000BFA6
:1052B0000320BDE8F081FFE7206880683040B042FD
:1052C00001D1012000E00020B842B5D10020F0E774
:1052D00010B504F0A3F804490968884203D104F02A
:1052E000B3F80249086010BDA0000020A80000200B
:1052F00010B502F097FF10BD10B59EB000BF0020A2
:1053000000903A48006840F08050384908600846EC
:10531000006800F08050009000BF00BF00BF002078
:1053200000903348006840F4404031490860084626
:10533000006800F44040009000BF00BF09201290B8
:105340004FF48030139001201790022018904105EF
:10535000199106211A91B4211B9102211C91082157
:105360001D9112A8FDF7BAF918B1F52121A000F09E
:105370009FFCFCF713FE18B1FC211EA000F098FC66
:105380000F200D9002200E9000200F904FF4A0509F
:1053900010904FF48050119005210DA8FDF708F8EA
:1053A00020B14FF4857113A000F082FC2020019001
:1053B00000010B9001A8FCF743FE20B140F211114F
:1053C0000CA000F075FCFDF7FDF84FF47A71B0FB0E
:1053D000F1F42046FEF791F80420FEF77AF8002257
:1053E0000F21501EFCF788FD1EB010BD4038024052
:1053F000007000402E2E2F5372632F6D61696E2E48
:10540000630000001448006840F47000124908600E
:105410001248006840F001001049086000200F4960
:10542000083108600D4800680D4908400B490860C4
:105430000C48091D0860081F006820F48020091F1F
:105440000860002005490C3108604FF000600249F7
:10545000803908607047000088ED00E000380240A5
:10546000FFFFF6FE1030002410B50248FEF7FCF8EE
:1054700010BD00009C450020002202682C4B984281
:105480000ED0B0F1804F0BD02A4B984208D02A4B57
:10549000984205D0294B984202D0294B984201D11D
:1054A000012300E000231BB122F070024B681A4375
:1054B0001F4B984220D0B0F1804F1DD01D4B984219
:1054C0001AD01D4B984217D01C4B984214D01C4B3D
:1054D000984211D01B4B98420ED01B4B98420BD0D8
:1054E0001A4B984208D01A4B984205D0194B984253
:1054F00002D0194B984201D1012300E000231BB1D7
:1055000022F44072CB681A4302608B68C3620B6856
:105510008362074B984202D0094B984201D1012384
:1055200000E000230BB10B69036301234361704763
:10553000000001400004004000080040000C004052
:105540000004014000400140004401400048014087
:1055500000180040001C00400020004030B500232F
:10556000012404FA01F3046A9C430462046A02FA07
:1055700001F52C43046230BD30B500240022002325
:10558000056A25F001050562026A4368846924F012
:10559000700424F003040D682C4322F002028D688D
:1055A0002A430F4DA84202D00E4DA84201D1012539
:1055B00000E000256DB122F00802CD682A4322F0F8
:1055C000040223F4807323F400734D692B438D6927
:1055D0002B43436084614D684563026230BD000027
:1055E000000001400004014030B5002400220023E7
:1055F000056A25F010050562026A4368846924F48F
:10560000E04424F440740D6844EA052422F02002AA
:105610008D6842EA0512104DA84202D00F4DA842F3
:1056200001D1012500E0002585B122F08002CD687E
:1056300042EA051222F0400223F4806323F400635F
:105640004D6943EA85038D6943EA850343608461BC
:105650004D688563026230BD0000014000040140D6
:1056600030B5002400220023056A25F48075056208
:10567000026A4368C46924F0700424F003040D68CE
:105680002C4322F400728D6842EA0522104DA84294
:1056900002D0104DA84201D1012500E0002585B1BE
:1056A00022F40062CD6842EA052222F4806223F4EB
:1056B000805323F400534D6943EA05138D6943EA8F
:1056C00005134360C4614D68C563026230BD0000CC
:1056D000000001400004014030B5002200230024F6
:1056E000056A25F480550562036A4468C26922F49C
:1056F000E04222F440720D6842EA052223F400538E
:105700008D6843EA05330A4DA84202D0094DA842EC
:1057100001D1012500E0002525B124F480444D6924
:1057200044EA85144460C2614D680564036230BD7B
:10573000000001400004014070B50546AC6B00203C
:10574000E085E0842046FEF790FA70BD0168C968E4
:1057500021F490710268D1600168496921F001016A
:1057600002685161202180F83A10704710B5044654
:105770002068C06820F040002168C860202084F8BC
:1057800039002046FEF720FD002010BD2DE9F04134
:1057900004460D461646002794F83A70202F26D16D
:1057A00005B116B90120BDE8F08100BF94F83800BA
:1057B000012801D10220F6E7012084F8380000BF5B
:1057C000A562A6850020E0632268111D33462A46A3
:1057D000606BFCF791F92068406940F04000216857
:1057E000486100BF002084F8380000BFDBE70220DA
:1057F000D9E770B5044694F83A00222844D1A0684D
:10580000B0F5805F13D1A56A206940B9206840686F
:10581000C0F308002880A06A801CA06219E02068FC
:105820004068C0B22880A06A401CA06211E02069D4
:1058300038B920684068C1B2A26A501CA0621170D9
:1058400007E02068406800F07F01A26A501CA06257
:105850001170E08D401E80B2E08598B92068C06864
:1058600020F490702168C8602068406920F0010031
:1058700021684861202084F83A002046FEF79EFC0B
:10588000002070BD0020FCE70220FAE72DE9F0417E
:10589000044600252068056925F44055E068054365
:1058A000206805612068C56849F20C60854321695C
:1058B000A068084361690843E1690843054320681B
:1058C000C5602068456925F44075A06905432068D6
:1058D0004561E069B0F5004F7ED1C4492068884237
:1058E00003D0C349206888425DD1FCF787FE00EBF6
:1058F000C00101EB001061684900B0FBF1F06421C8
:10590000B0FBF1F00601FCF779FE00EBC00101EB02
:10591000001061684900B0FBF1F7FCF76FFE00EB87
:10592000C00101EB001061684900B0FBF1F0642197
:10593000B0FBF1F000EBC00101EB0010A7EB800021
:10594000322101EBC0006421B0FBF1F000F0F8005F
:1059500006EB4006FCF752FE00EBC00101EB001025
:1059600061684900B0FBF1F7FCF748FE00EBC001AD
:1059700001EB001061684900B0FBF1F06421B0FB5D
:10598000F1F000EBC00101EB0010A7EB8000322129
:1059900001EBC0006421B0FBF1F000F007003044DF
:1059A0002168886020E1FCF713FE00EBC00101EBE9
:1059B000001061684900B0FBF1F06421B0FBF1F028
:1059C0000601FCF705FE00EBC00101EB0010616869
:1059D0004900B0FBF1F700E045E0FCF7F9FD00EB12
:1059E000C00101EB001061684900B0FBF1F06421D7
:1059F000B0FBF1F000EBC00101EB0010A7EB800061
:105A0000322101EBC0006421B0FBF1F000F0F8009E
:105A100006EB4006FCF7DCFD00EBC00101EB0010DB
:105A200061684900B0FBF1F7FCF7D2FD00EBC00163
:105A300001EB001061684900B0FBF1F06421B0FB9C
:105A4000F1F000EBC00101EB0010A7EB8000322168
:105A500001EBC0006421B0FBF1F000F0070030441E
:105A600021688860C0E061492068884203D06049AD
:105A7000206888425CD1FCF7C1FD00EBC00101EB5E
:105A8000001061688900B0FBF1F6FCF7B7FD00EB90
:105A9000C00101EB001061688900B0FBF1F06421E6
:105AA000B0FBF1F000EBC00101EB0010A6EB8000B1
:105AB000322101EB00106421B0FBF1F000F0F006A0
:105AC000FCF79CFD00EBC00101EB00106168890050
:105AD000B0FBF1F06421B0FBF1F006EB0016FCF72F
